:020000040800F2
:1000000000000220B9110008A9150008AB1500086E
:10001000AD150008AF150008B1150008000000007C
:10002000000000000000000000000000B315000800
:10003000B515000800000000B7150008B915000844
:100040000912000809120008091200080912000824
:100050000912000809120008091200080912000814
:100060000912000809120008091200080912000804
:1000700009120008091200080912000809120008F4
:1000800009120008091200080912000809120008E4
:1000900009120008091200080912000809120008D4
:1000A00009120008091200080912000809120008C4
:1000B00009120008091200080912000809120008B4
:1000C00009120008091200080912000809120008A4
:1000D0000912000809120008091200080912000894
:1000E0000912000809120008091200080912000884
:1000F0000912000809120008091200080912000874
:100100000912000809120008091200080912000863
:100110000912000809120008091200080912000853
:100120000912000809120008091200080912000843
:100130000912000800000000000000000912000879
:100140000912000809120008091200080912000823
:100150000912000809120008091200080912000813
:100160000912000809120008091200080912000803
:100170000912000809120008091200080000000016
:10018000000000000912000800000000000000004C
:100190000912000800000000000000000912000819
:1001A000000000000000000000000000091200082C
:1001B00009120008091200080912000809120008B3
:0401C0000912000818
:1001C40053B94AB9002908BF00281CBF4FF0FF31BA
:1001D4004FF0FF3000F00CB8ADF1080C6DE904CE1F
:1001E40001F0D4FDDDF804E0DDE9022304B070473A
:1001F400704700BF0348044B834202D0034B03B152
:10020400184770470C0000200C000020000000007C
:100214000548064B1B1AD90F01EBA301491002D064
:10022400034B03B1184770470C0000200C0000205A
:100234000000000010B5064C237843B9FFF7DAFF3D
:10024400044B13B10448AFF300800123237010BDA5
:100254000C000020000000008820000808B5054BB1
:100264001BB105490548AFF30080BDE80840FFF71E
:10027400CFBF00BF0000000010000020882000084D
:100284000749CA6822F4E0620302120403F4E0633B
:10029400120C134343F0BF6343F40033CB60704745
:1002A40000ED00E0164B30B5DC68C4F30224C4F161
:1002B4000703251D042B28BF0423062D4FF0FF350B
:1002C4008CBF033C002405FA03F321EA0303A54091
:1002D40022EA0502A340002843EA0203ACBF00F16E
:1002E4006040084A4FEA0313B8BF00F00F00DBB2C6
:1002F400AABF00F56140135480F8003330BD00BF3D
:1003040000ED00E014ED00E00138B0F1807F0BD285
:100314004FF0E023054A5861F02182F823100020B1
:10032400072298611A6170470120704700ED00E0D0
:100334002DE9F74FDFF89891634A00230D680124F3
:100344009C4004EA0506AC4340F0AB804D680327AB
:1003540005F003044FEA430807FA08FC671E012F5F
:100364006FEA0C0C34D8876807EA0C0ECF6807FADA
:1003740008F747EA0E078760476827EA060EC5F3C1
:1003840000179F4047EA0E074760C76807EA0C0E4C
:100394008F6807FA08F747EA0E07022CC76019D1DD
:1003A4004FEAD30A00EB8A0A03F0070BDAF820704D
:1003B4004FEA8B0B4FF00F0E0EFA0BFE27EA0E0ED0
:1003C4000F6907FA0BF747EA0E07CAF8207001E035
:1003D400032CDAD1076804FA08F407EA0C073C4353
:1003E40015F4403F04605CD000240194D9F84440E3
:1003F40044F48044C9F84440D9F8444023F0030746
:1004040007F1804704F4804407F59C37019403F016
:10041400030C019CD7F808E04FEA8C0C0F2404FA73
:100424000CF42EEA040E294CA04241D004F5806459
:10043400A0423FD004F58064A0423DD004F580641E
:10044400A0423BD004F58064A04239D004F5806416
:10045400A04237D004F58064A04214BF07240624C8
:1004640004FA0CF444EA0E04BC609468F74315F4EF
:10047400801F0CBF3C4034439460D46815F4001FC3
:100484000CBF3C403443D460546815F4003F0CBFA7
:100494003C40344354601468ED0354BF3C4034433F
:1004A40014600133102B7FF449AF03B0BDE8F08F23
:1004B4000024D5E70124D3E70224D1E70324CFE7BE
:1004C4000424CDE70524CBE7003C014000000240B2
:1004D400003802400AB1816170470904FBE700005B
:1004E400204908B58B6803F00C03082B07D00C2BAC
:1004F40020D01D481D4A042B18BF104608BD4A6869
:100504004B68496813F4800314BF17481748C1F3B4
:10051400881118BF002302F03F02A1FB0001FFF77E
:100524004FFE104B5B68C3F3014301335B00B0FB28
:10053400F3F0E3E74A684B68496813F4800314BF97
:1005440009480A48C1F3881118BF002302F03F028A
:10055400A1FB0001FFF734FE024B5B68C3F3027397
:10056400E5E700BF0038024000127A000024F400DE
:100574002DE9F3410446002831D00368DF0710D485
:1005840023689E0767D42368190700F1B2802368A3
:100594005A0700F1D280A369002B40F03981002072
:1005A40034E0984B9A6802F00C02042A10D09A683E
:1005B40002F00C02082A02D15B685D0208D4914B58
:1005C4009A6802F00C020C2A0BD15A68510208D521
:1005D4008C4B1B689A03D3D56368002BD0D10120C0
:1005E40014E06268B2F5803F13D11A6842F4803295
:1005F4001A6000F0BBFD834E054633689B03BFD4ED
:1006040000F0B4FD401B6428F7D9032002B0BDE814
:10061400F0817C4DB2F5A02F2B6807D143F48023E1
:100624002B602B6843F480332B60E2E723F48033A0
:100634002B602B6823F480232B60002AD9D100F08F
:1006440095FD06462B689F039AD500F08FFD801B0D
:100654006428F7D9D9E76B4B9A6812F00C0F10D0C5
:100664009A6802F00C02082A02D15B685E0208D57F
:10067400644A936803F00C030C2B11D153685D0298
:100684000ED4604A1368990702D5E368012BA6D1FA
:100694001368216923F0F80343EAC103136072E786
:1006A400E268594BB2B101221A6000F05FFD554D6A
:1006B40006462B689B0707D52B68226923F0F803AD
:1006C40043EAC2032B605EE700F050FD801B022862
:1006D400EFD99AE71A6000F049FD4A4E054633689F
:1006E4009F077FF550AF00F041FD401B0228F6D96B
:1006F4008BE76269444B82B10122C3F8802E00F07B
:1007040035FD404E0546736F9B073FF540AF00F043
:100714002DFD401B0228F6D977E7C3F8802E00F0A0
:1007240025FD384E0546736F9F077FF530AF00F007
:100734001DFD401B0228F6D967E7324B1A6C12F0F4
:10074400805228D101921A6C42F080521A641B6CB8
:1007540003F080530193019B01272C4D2B68D8058E
:100764001BD5A368274D012B27D12B6F43F0010321
:100774002B6700F0FBFC234E054641F28838336FAB
:100784009A0739D5002F3FF406AF1E4A136C23F0A5
:1007940080531364FFE60027DFE72B6843F480737C
:1007A4002B6000F0E3FC06462B68D905D9D400F091
:1007B400DDFC801B0228F7D927E7052B04D12B6F1A
:1007C40043F004032B67D0E72A6F22F001022A6763
:1007D4002A6F22F004022A67002BCAD100F0C6FC5B
:1007E40041F2883806462B6F9B07CBD500F0BEFC40
:1007F400801B4045F7D908E700F0B8FC401B404592
:10080400BDD902E7003802400000474200700040B2
:100814003C4DAA6802F00C02082A41D0022B3A4B44
:100824004FF000021A662ED100F0A0FC06462B6899
:10083400990122D4D4E907321343626A43EA82134A
:10084400E26A43EA0263226B43EA0273A26A520831
:10085400013A43EA02436B602B4B2A4D01221A668C
:1008640000F084FC04462B689A013FF598AE00F032
:100874007DFC001B0228F6D9C7E600F077FC801B3C
:100884000228D4D9C1E600F071FC04462B689B0110
:100894007FF585AE00F06AFC001B0228F6D9B4E6A9
:1008A400012B3FF49CAE6B68E26903F48001914232
:1008B4007FF495AE216A03F03F028A427FF48FAE43
:1008C400616A47F6C0721A40B2EB811F7FF487AEAB
:1008D400A26A520803F44031013AB1EB024F7FF4AB
:1008E4007EAEE16A03F07062B2EB016F7FF477AE23
:1008F400226B03F0E043B3EB027F14BF012000201E
:1009040084E600BF00380240000047422DE9F04170
:100914000D46044610B90120BDE8F081434B1A6826
:1009240002F00F028A4228D321688F072DD4C8070A
:1009340040D43E4B1A6802F00F02AA4265D82268DE
:1009440051076BD4130707D5394A2169936823F4F7
:10095400604343EAC1039360FFF7C2FD344B354A59
:100964009B68C3F30313D35CD840334B1860334BF9
:10097400186800F0B1FB0020CEE7CAB21A701B68F9
:1009840003F00F038B42C6D1CEE7294B11F0040FBD
:100994001EBF9A6842F4E0529A600E0742BF9A68FA
:1009A40042F460429A609A68A06822F0F00202431E
:1009B4009A60BCE762681E4B012A1CD11B6813F4C1
:1009C400003FA8D01A4EB36823F003031343B36067
:1009D40000F0CCFB41F288380746B368626803F044
:1009E4000C03B3EB820FA4D000F0C0FBC01B404546
:1009F400F3D9032090E7911E01291B6802D813F054
:100A0400007FDEE713F0020FDBE7EAB21A701B681F
:100A140003F00F03AB427FF47EAF90E70449E06834
:100A24008B6823F4E05303438B608BE7003C024064
:100A340000380240A820000808000020040000201C
:100A4400044B054A9B68C3F38223D35C034A1068B2
:100A5400D840704700380240A02000080800002059
:100A6400044B054A9B68C3F34233D35C034A1068C2
:100A7400D840704700380240A02000080800002039
:100A84002DE9F3471F4689469046044600F06EFB65
:100A94000A9D3D442D1A00F069FB264B1E68C6F3DF
:100AA400CB366E43824601962268936839EA030383
:100AB4000CBF01230023434501D100202EE07B1C01
:100AC400F3D000F053FBA0EB0A00A84229D323681B
:100AD4005A6822F0E0025A606268B2F5827F0AD155
:100AE400A268B2F5004F02D0B2F5806F03D11A6844
:100AF40022F040021A60A26AB2F5005F07D11A68B8
:100B040022F400521A601A6842F400521A60012357
:100B140084F85130002384F85030032002B0BDE83B
:100B2400F087019B1BB1019B013B0193BCE71D4670
:100B3400BAE700BF08000020F0B585B00B4600926C
:100B44000E461746022101220446FFF799FF054687
:100B540028B1636D43F020036365032515E0124B50
:100B64001868124BB0FBF3F04FF47A735843636880
:100B74000390B3F5827F0BD1009733462A46802138
:100B84002046FFF77DFF0028E3D1284605B0F0BDDD
:100B9400039B002BF9D0039B013B039323689B68C1
:100BA4001B06F5D4F1E700BF0800002000366E01F3
:100BB40010B50446002855D0436A002B4ED1426834
:100BC400B2F5827F00D0C3610023A36294F8513050
:100BD40003F0FF0223B984F85020204600F056FCAD
:100BE4002168A068A269022384F851300B6823F0BD
:100BF40040030B60636800F4044003F4827303430E
:100C0400E06800F400600343206900F0020003433D
:100C1400606900F00100034302F400700343E069DB
:100C240000F038000343206A00F080000343A06A08
:100C340000F4005003430B60636A120C03F01003CA
:100C440002F004021A434A60CB6923F40063CB61C7
:100C540000200123606584F8513010BD0023C0E9F1
:100C64000433B1E70120F8E72DE9F74304460D46C4
:100C740091461E46DDF8288000F078FA94F8513049
:100C84006268012B0746D9B20AD0B2F5827F40F0E0
:100C9400E580A368002B40F0E180042940F0DE8069
:100CA400002D4BD0B9F1000F48D0002E46D094F857
:100CB4005030012B00F0D280012384F8503094F896
:100CC4005130C4F83890042B1CBF052384F85130EC
:100CD40000236365C4E910332368E687E686196850
:100CE400A687490658BF1968256358BF41F04001DB
:100CF400A68658BF1960E168B1F5006F55D10AB1F5
:100D0400012E07D135F8022BDA60E38E2563013B0F
:100D14009BB2E3860125E38E9BB28BB9E38F9BB232
:100D240073B93A4641462046FFF706FF002800F013
:100D3400818020236365002384F85030012031E052
:100D440021688B689A070DD5E38E9BB253B145B1E8
:100D5400236B33F8022BCA602363E38E013B9BB2FF
:100D6400E38600258A6812F001020CD0E38F9BB25F
:100D74004BB1A36BC96823F8021BA363E38F013B48
:100D84009BB2E387154600F0F1F9C01B4045C2D37E
:100D9400B8F1FF3FBFD0012384F85130002384F819
:100DA4005030032003B0BDE8F0830AB1012E08D10E
:100DB4002A781A73236B01332363E38E013B9BB2BE
:100DC400E38601252DE0226893689B070ED5E38E08
:100DD4009BB25BB14DB1236B1B781373236B01334F
:100DE4002363E38E013B9BB2E3860025226891686E
:100DF40011F001010DD0E38F9BB253B1A36BD26804
:100E04001A70A36B0133A363E38F013B9BB2E387A7
:100E14000D4600F0ABF9C01B404502D3B8F1FF3FCB
:100E2400B9D1E38E9BB2002BCDD1E38F9BB2002BC3
:100E3400C9D176E7A36833B901932368DA680192CC
:100E44009B680193019B012384F85130606D00235A
:100E5400C01A84F8503018BF0120A3E70220A1E78C
:100E6400026802F10C0353E8003F23F490730C3240
:100E740042E8003102680029F2D102F1140353E878
:100E8400003F23F0010302F1140C4CE80031002967
:100E9400F3D1036B012B0BD102F10C0353E8003F98
:100EA40023F0100302F10C0C4CE800310029F3D1BB
:100EB400202380F842300023036370470268C1682E
:100EC40038B5136923F440530B4313610546836813
:100ED4000069D168034368690343E86921F4164152
:100EE40021F00C0103430B43D3605369A96923F434
:100EF40040730B4353611F4B9A4203D003F5806345
:100F04009A4224D1FFF7ACFDEA691921B2F5004FEA
:100F1400D5E90043A0FB01011CD1DA184FF000050C
:100F240045EB0503FFF74CF96422B0FBF2F102FB39
:100F34001103DB003233B3FBF2F303F007025B006F
:100F440002EB011203F4F8731344A36038BDFFF7F6
:100F540077FDD9E79A009B0FFFF732F96422B0FBC3
:100F6400F2F102FB11031B013233B3FBF2F303EB87
:100F74000113EAE700100140F7B505460C46174691
:100F84001E462A68136834EA030301D1002021E0D5
:100F9400701CF7D000F0EAF8C01B86421CD3DEB107
:100FA4002B68DA685107ECD5802CEAD0402CE8D0C5
:100FB4001A681207E5D5002401941A6801925B6847
:100FC40001932846019BFFF74BFF08236B6485F8C8
:100FD4004040012003B0F0BD0320FBE710B50446F8
:100FE40048B390F8413003F0FF021BB980F8402069
:100FF40000F0A2FA2268242384F84130D36823F451
:101004000053D3602046FFF759FF23681A6922F47E
:1010140090421A615A6922F02A025A61DA6842F44B
:101024000052DA6000202023606484F8413084F8A0
:101034004230606310BD0120FCE72DE9F843984677
:1010440090F84130202B04460E4617463FD1002924
:101054003FD0002A3DD021230025456480F841304B
:1010640000F084F8A368A784B3F5805F8146E78421
:1010740003D123690BB935461E46E38C9BB253B9A1
:1010840043464A4640212046FFF776FF202350B9C5
:1010940084F841300AE043464A4680212046FFF75F
:1010A4006BFF28B1202384F841300320BDE8F88386
:1010B40022684EB935F8023BC3F308035360E18C50
:1010C400013989B2E184D8E716F8013BF6E702203A
:1010D400ECE70120EAE7000038B50E4B1A784FF42C
:1010E4007A73B3FBF2F30C4A05461068B0FBF3F0D5
:1010F400FFF70AF9044658B90F2D09D802462946C4
:101104004FF0FF30FFF7CEF8044B20461D6038BD8A
:101114000120FCE70000002008000020040000205B
:1011240008B50B4B1A6842F400721A601A6842F44C
:1011340080621A601A6842F480721A600320FFF712
:101144009FF80020FFF7C8FF00F082F9002008BDD7
:10115400003C0240034A044B11681B780B441360A3
:10116400704700BF2800002000000020014B1868D1
:10117400704700BF2800002038B50446FFF7F6FF8B
:10118400631C1CBF054B1B78054618BFE418FFF70A
:10119400EDFF431BA342FAD338BD00BF000000207B
:1011A400034AD2F8883043F47003C2F88830704799
:1011B40000ED00E0DFF834D0FFF7F2FF0C480D49F2
:1011C4000D4A002302E0D458C4500433C4188C429E
:1011D400F9D30A4A0A4C002301E013600432A24204
:1011E400FBD300F0A1FD00F07DF870470000022061
:1011F400000000200C0000201C2C00080C00002023
:1012040084190020FEE7000008B5074B1B784BB19A
:10121400064800220121FFF75DF90448002220213D
:10122400FFF758F972B6FEE72D00002000000240D7
:1012340008B5034B1A7802B91870FFF7E5FF00BF31
:101244002C00002010B594B01422002108A800F04E
:1012540062FD1422002102A800F05DFD1F4B002254
:101264000092196C41F0805119641B6C1C4903F005
:1012740080530093009B01920B6823F4404343F492
:1012840080430B600B6803F440430193019B0121ED
:1012940010234FF4A870CDE90A130F9304230224FA
:1012A400CDE9100307A8CDE90D42CDE91244079416
:1012B400FFF75EF908B1FFF7A7FF0F23CDE902346A
:1012C4004FF48053CDE905300490214602A8FFF77E
:1012D4001DFB0028EFD114B010BD00BF0038024040
:1012E4000070004000B597B0FFF71AFFFFF7AAFFA0
:1012F400142200210DEB020000F00DFD00244A4BE6
:1013040001941A6B494842F004021A631A6B02F002
:1013140004020192019A02941A6B42F080021A6349
:101324001A6B02F080020292029A03941A6B42F042
:1013340001021A631A6B02F001020392039A0494E5
:101344001A6B42F002021A631B6B03F0020304934C
:1013540001221021049BFFF7BDF8224633482021C7
:10136400FFF7B8F84FF404134FF40051CDE9051317
:101374002F48079405A9FEF7DBFF012530232B48EE
:1013840005A9CDE90535CDE90744FEF7D1FF294B81
:10139400294A1D70294B13604FF48273C2E901344A
:1013A40002234FF40070C2E904353823C2E906036E
:1013B4000A231046C2E90844D4609462D362FFF75A
:1013C400F7FB08B1FFF720FF1D4C1E4A20614FF4C4
:1013D400E133C4E900230C23C4E90200C4E9053065
:1013E400E0612046FFF7FAFD0028EBD116494422BC
:1013F40005A800F0BDFC6423432205A92046FFF79D
:101404001CFE10B10820FFF713FF1048294600F016
:101414006DFB0028F7D100F070FC0028F3D14FF4E5
:101424007A70FFF7A9FEFAE7003802400000024094
:10143400000802402D000020780000200038004001
:101444003000002000440040B8200008FC200008C0
:1014540082B00D4B002100915A6C42F480425A64D0
:101464005A6C02F480420092009A01911A6C42F084
:1014740080521A641B6C03F080530193019B072074
:1014840002B0FEF7FDBE00BF00380240F0B50446CE
:1014940089B01422002103A800F03DFC2268234BEC
:1014A4009A4241D103F50033002400941A6C204879
:1014B40042F480421A641A6C02F480420092009A48
:1014C40001941A6B42F004021A631A6B02F00402CC
:1014D4000192019A02941A6B42F002021A631B6B86
:1014E40003F00203029302250326029B03A90723A8
:1014F400CDE906630527CDE90355FEF719FF04235B
:101504000B48079703A9CDE90335CDE90546FEF756
:101514000FFF4FF480630748079703A9CDE903350C
:10152400CDE90546FEF704FF09B0F0BD00380040E0
:10153400000802400004024010B5044688B014229A
:10154400002103A800F0E7FB2268144B9A4222D141
:1015540003F5FA33002101911A6C114842F4003268
:101564001A641A6C02F400320192019A02911A6B05
:1015740042F001021A631B6B03F001030293029B06
:101584000C2202230321CDE903230723CDE906130B
:1015940003A9FEF7CDFE08B010BD00BF0044004013
:1015A40000000240FEE7FEE7FEE7FEE7FEE77047C5
:1015B40070477047FFF7CEBD10B50F4C01440022B1
:1015C40010F8013B53408142E25CF9D153085200C8
:1015D40002F0AA0203F0550313439A089B0002F099
:1015E400330203F0CC0342EA03000246000140EA5E
:1015F4001210C0B210BD00BF0C210008032810B5A2
:101604000C4607D800F06EFB18B92378022B28BFCC
:10161400072010BD0220FCE730B50C4669B1030673
:101624000DD41422074B50431D181B583BB10FCD4A
:101634000FC42B682360002030BD0120FCE7032089
:10164400FAE700BF0C2200080328F0B500F29480EA
:101654000C1F012C17D84B4B4FF4C06202FB003314
:1016640000221046052914BF1C7A986002F1010279
:101674000EBFC3E9000058729C72802A03F10C0368
:10168400F0D10020F0BD140678D414253E4C554307
:101694006659002E72D063B9032971D14FF4C06327
:1016A4000C21434301FB023336490B440021597298
:1016B4004BE0032964D801A555F821F0D1160008A0
:1016C400E916000835170008A11600084FF4C06198
:1016D40041430C2000FB02112A4A0A4407CA83E84A
:1016E4000700CEE74FF4C0610C25414305FB02110E
:1016F400142505FB02451B68224E6D6877182B40A4
:10170400735001233B814FF4C0610C231D4D4143B1
:1017140003FB02116B185E7A66B3142606FB0244BF
:101724005B686468695823405B1A18BF012317E09B
:101734004FF4C0610C25414305FB0211114D5B6858
:10174400294433404B6001234B724FF4C0630C2196
:10175400434301FB02330B490B441B7A002BD2D1C8
:101764004FF4C06148430C2101FB020205490A44BD
:10177400937286E70123F3E7022083E7032081E7DE
:1017840001207FE7D00000200C2200081FB50024B0
:10179400CDE9013301AB0394FFF756FF04B010BD4C
:1017A40070B5052204460D4600F00CFA034658B9FC
:1017B4002B7813F0010307D0034602460421204688
:1017C400BDE87040FFF7E2BF184670BD10B568B1C0
:1017D40004280DD8002400231A460521A0B2FFF7DF
:1017E400D5FF10B90134042CF5D110BD0120FCE75C
:1017F4000520FAE72DE9F043054689B00E469046E8
:10180400002A00F08E8003A93046FFF705FF044646
:10181400002840F082800DF103012846FFF7EEFE18
:101824000446002879D19DF8033001900DF1040994
:10183400C9F8040023BB494628468DF80460FFF725
:10184400AFFF0446002851D1CDF805004946029067
:1018540028468DF80460FFF7A3FF0446002845D10D
:10186400DDF80570012E3FBA4BD03B4632460221CB
:101874002846FFF78BFF0446C0BBC8F800704CE055
:1018840005270DEB070128468DF8047000F033FAA4
:10189400044658BB9DF80530FF2B26D0032148464B
:1018A4008DF80660FFF788FE08238DF807000422F0
:1018B4004946284600F014FA0446B8B99DF80430A5
:1018C400BB421AD19DF80530FF2B16D19DF8063086
:1018D400B34212D107214846FFF76EFE9DF80B4034
:1018E40084420CD1DDF80770BCE73C460023324645
:1018F40003212846FFF74AFF0FE00B24F6E70C24E8
:10190400F4E717F0090FB0D000231A460421284643
:10191400FFF73CFF04460028A7D0204609B0BDE8E5
:10192400F0830124F9E70000054B1B782BB18342B7
:101934008CBF00200120400070470620704700BF84
:10194400D0180020036810B5002B65D04268002A27
:1019540062D046498A421BD001F580618A4217D081
:1019640001F580618A4213D001F580618A420FD06B
:1019740001F580618A420BD001F580618A4207D06B
:1019840001F580618A4203D001F580618A4243D126
:101994001A6837498A420BD0A1F578418A4207D0A8
:1019A40001F580618A4203D001F578418A4233D13E
:1019B400018989B34C1E0C422ED1C168002901DC77
:1019C400052010BD5968B1F5827F25D1996819BBEE
:1019D400D96809BB196902291ED1586901281BD18C
:1019E4009969B1F5007FECD1196AA9B9596A99B915
:1019F400996A89B9DC698CB1182C04D8072CE0D910
:101A04001C49E14006E0A4F12000182804D84FF056
:101A14000131C140C90701D40120D2E793F8513004
:101A2400012B20D1124B9A421AD003F580639A42BB
:101A340016D0FFF705F8104B104A1B68A3F5742362
:101A4400A3F510739342BBD80D4B9842B8D90D4AF5
:101A5400E4080223A34053438342B1D30020B0E7F8
:101A6400FEF7FEFFE7E70A20ABE700BF00000240F5
:101A7400003001400001010108000020C0878B3BB9
:101A84003F420F0080969800C369154ADB0813B5DE
:101A940002249C40036893421AD002F58062934268
:101AA40016D0FEF7CDFFB0FBF4F00E4B0E4A1B68C8
:101AB400B3FBF0F0B3FBF2F301300133984238BFCB
:101AC400184600230193019B984204D802B010BD2C
:101AD400FEF7C6FFE7E700BF019B0133F2E700BF53
:101AE400003001400800002040420F002DE9F84F6B
:101AF4008846074618B901242046BDE8F88F4B1ED6
:101B0400032BF8D8DFF8B89099F80030002B4BD1AC
:101B1400054600EB011A06463046FFF713FF04465C
:101B24000028E9D13946B1422CD101F110065645BD
:101B3400F2D14046FFF74AFE04460028DCD11B4B95
:101B44001B4E18601B4B1C4F1860014660221B483B
:101B540000F0E1F84FF0010B95E80F0086E80F0064
:101B640007F801BB012229896868FEF7B3FC55F820
:101B7400100BFFF789FF554506F11006ECD189F8E3
:101B84000080B9E772684B689A4203D132890B89A5
:101B94009A42B0D034680868226803689A4201D136
:101BA4008442A8D11031BEE70E24A5E734190020E1
:101BB400441900203819002040190020D4180020AE
:101BC400D01800202DE9F04F89B000230446039279
:101BD40006938DF81C30FFF7A7FE0D460DF1180A89
:101BE4008346002858D100296CD0052A6AD1374E83
:101BF40006EB04173846FFF7A5FE4FEA04188346A0
:101C04008146002848D128682A79049056F80800AB
:101C14008DF81420FFF738FF5A4639897868FEF7A3
:101C240059FC56F80800FFF72FFFFB680093524653
:101C3400039B56F8080004A9FFF716F8834656F8E4
:101C44000800FFF721FF398978680122FEF742FC7A
:101C540056F80800FFF718FF1D4A1E4902F804B0A1
:101C6400BBF1020F01F8049020D0BBF1030F17D091
:101C7400BBF1000F20D106989DF81C2028602A7122
:101C840015489DF81820025593074FF00100085598
:101C940002D0124A02F804B0584609B0BDE8F08FE9
:101CA4000E4B4FF0090B03F80490F5E70B4B4FF084
:101CB4000A0B03F80490EFE7084B4FF0080B03F806
:101CC4000490E9E74FF0010BE6E700BF4419002058
:101CD40040190020381900203C1900203419002034
:101CE4000720704708B521B1FFF71EFE00B9087040
:101CF40008BD0120FCE70720704707B5042101AAAD
:101D0400FFF778FD20B99DF80730402B18BF0D2050
:101D140003B05DF804FB02440346934200D17047CC
:101D240003F8011BF9E7000070B50D4B0D4D5B1B6B
:101D34009C100026A64209D100F0A4F90A4D0B4BD1
:101D44005B1B9C100026A64205D170BD55F8043BD0
:101D540098470136EEE755F8043B98470136F2E719
:101D6400142C0008142C0008142C0008182C00084B
:101D74000A44914200F1FF3300D1704710B511F8C5
:101D8400014B03F8014F9142F9D110BD2DE9F04701
:101D9400089D0F4604468C46002B48D18A421646BD
:101DA40061D9B2FA82F34BB1C3F1200201FA03FC08
:101DB40020FA02F29E4042EA0C0C9C404FEA164E76
:101DC400B7B2BCFBFEF1220C0EFB11CC42EA0C4272
:101DD40001FB07F0904209D9B21801F1FF3C80F0F1
:101DE400EE80904240F2EB8002393244121AA4B2DF
:101DF400B2FBFEF00EFB102244EA024400FB07F79C
:101E0400A74209D9341900F1FF3280F0DA80A742E1
:101E140040F2D7803444023840EA0140E41B0021F8
:101E24001DB1DC400023C5E90043BDE8F0878B42C7
:101E340006D90DB1C5E9000100210846BDE8F087C7
:101E4400B3FA83F1002948D1BB4202D3824200F2A3
:101E54000781841A67EB030201209446002DE4D025
:101E6400C5E9004CE1E7002A00F09280B2FA82F35F
:101E7400002B40F0A8808A1A4FEA164E1FFA86FCFF
:101E84000121200CB2FBFEF70EFB172240EA0242AE
:101E94000CFB07F0904207D9B21807F1FF3802D2C1
:101EA400904200F2E2804746121AA4B2B2FBFEF05E
:101EB4000EFB102244EA02440CFB00FCA44507D9A3
:101EC400341900F1FF3202D2A44500F2CB8010464F
:101ED400A4EB0C0440EA0740A2E7C1F120068B40C2
:101EE40022FA06FC4CEA030C07FA01F420FA06F382
:101EF400F7404FEA1C49234300FA01F81FFA8CFE0D
:101F0400B7FBF9F01C0C09FB107744EA074400FB0B
:101F14000EF7A74202FA01F20AD91CEB040400F1FD
:101F2400FF3A80F09B80A74240F2988002386444D4
:101F3400E41B9FB2B4FBF9F309FB134447EA0444DE
:101F440003FB0EFEA64509D91CEB040403F1FF377D
:101F540080F08280A6457FD9023B644443EA004076
:101F6400A4EB0E04A0FB02E7BC427346B94663D35C
:101F740060D05DB1B8EB030264EB090404FA06F621
:101F840022FA01F31E43CC40C5E9006400214CE76A
:101F94006208480842EAC1710B0C43EA00438AB262
:101FA40042EA0342B3FBF6F1E407B4463746B646C9
:101FB4001F23B0FBF6F0D21B41EA004161E7614602
:101FC40014E7104628E7C3F1200120FA01F29E40ED
:101FD40027FA01F19F403A434FEA164E1FFA86FC56
:101FE400B1FBFEF70EFB1710110C41EA004107FB91
:101FF4000CF8884504FA03F43AD9711807F1FF3054
:1020040001D288451FD8A1EB0801B1FBFEF808FBFB
:102014000CF70EFB181192B242EA0142BA422FD2D7
:10202400B21808F1FF31C6D2BA42C4D2A8F10201F3
:102034003244C0E7F0459CD2BEEB020367EB0C07C9
:102044000138B94695E7A6EB08084144B81EB1FB30
:10205400FEF808FB0CF7DCE73B467FE7504667E7F2
:102064000846FBE63444023832E7023F32441BE7B9
:10207400A1EB08013846B1FBFEF808FB0CF7C8E7F2
:10208400414698E7F8B500BFF8BC08BC9E467047C7
:0C209400F8B500BFF8BC08BC9E467047C1
:1020A0000000000001020304000000000000000026
:1020B0000102030406070809544D4332323430202C
:1020C000646961676E6F73746963733B206D6F74CD
:1020D000696F6E20726571756972657320657870BD
:1020E0006C69636974206275696C6420636F6E66E5
:1020F000696775726174696F6E0D0A00780000205F
:102100000000024010000000640000000091E37233
:102110000796E4750E9FED7C0998EA7B1C8DFF6E97
:102120001B8AF8691283F1601584F66738A9DB4AC7
:102130003FAEDC4D36A7D54431A0D24324B5C756B7
:1021400023B2C0512ABBC9582DBCCE5F70E19302A7
:1021500077E694057EEF9D0C79E89A0B6CFD8F1E57
:102160006BFA881962F3811065F4861748D9AB3A87
:102170004FDEAC3D46D7A53441D0A23354C5B72677
:1021800053C2B0215ACBB9285DCCBE2FE071039267
:10219000E7760495EE7F0D9CE9780A9BFC6D1F8E17
:1021A000FB6A1889F2631180F5641687D8493BAA47
:1021B000DF4E3CADD64735A4D14032A3C45527B637
:1021C000C35220B1CA5B29B8CD5C2EBF900173E227
:1021D000970674E59E0F7DEC99087AEB8C1D6FFED7
:1021E0008B1A68F9821361F0851466F7A8394BDA07
:1021F000AF3E4CDDA63745D4A13042D3B42557C6F7
:10220000B32250C1BA2B59C8BD2C5ECFFEF70100D6
:10221000FEF7010008000000FEF7010000000000CA
:102220001F0000001F0000001D0000001F00000034
:1022300001000000FF00000000000000000000009E
:10224000FF00000000000000FF0F0000FF0F000073
:1022500000000000FF0F0000000000007FFF07FFEC
:102260000010000000100040001007FF00000000F8
:10227000000000000000000000000000000000005E
:10228000000000000000000000000000000000004E
:10229000000000000000000000000000000000003E
:1022A000000000000000000000000000000000002E
:1022B000000000000000000000000000000000001E
:1022C000000000000000000000000000000000000E
:1022D0000000000033000000330000000000000098
:1022E0003300000000000000FF000000FF000000BD
:1022F00000000000FF0000000000000000000000DF
:1023000000000000000000000000000000000000CD
:1023100000000000000000000000000000000000BD
:1023200000000000000000000000000000000000AD
:10233000000000000000000000000000000000009D
:102340000000000000000000000000001F1F0F0F31
:102350001F1F0F0F081F01041F1F0F0F0000000099
:10236000FF000000FF0000000A000000FF00000066
:1023700000000000FFFF0F00000000000000000050
:10238000FFFF0F0000000000FFFF0F00FFFF0F0026
:1023900000000000FFFF0F0000000000FFFF0F0023
:1023A000FFFF0F0000000000FFFF0F000000000013
:1023B000FFFF0F00FFFF0F0000000000FFFF0F00F6
:1023C000000000000000000000000000000000000D
:1023D00000000000000000000000000000000000FD
:1023E00000000000000000000000000000000000ED
:1023F00000000000000000000000000000000000DD
:1024000000000000000000000000000000000000CC
:1024100000000000000000000000000000000000BC
:1024200000000000000000000000000000000000AC
:10243000000000000000000000000000000000009C
:10244000000000000000000000000000000000008C
:10245000000000000000000000000000000000007C
:10246000000000000000000000000000000000006C
:10247000000000000000000000000000000000005C
:10248000000000000000000000000000000000004C
:10249000000000000000000000000000000000003C
:1024A000000000000000000000000000000000002C
:1024B000000000000000000000000000000000001C
:1024C000000000000000000000000000000000000C
:1024D00000000000000000000000000000000000FC
:1024E00000000000000000000000000000000000EC
:1024F00000000000000000000000000000000000DC
:1025000000000000000000000000000000000000CB
:1025100000000000000000000000000000000000BB
:1025200000000000000000000000000000000000AB
:10253000000000000000000000000000000000009B
:10254000000000000000000000000000000000008B
:10255000000000000000000000000000000000007B
:10256000000000000000000000000000000000006B
:10257000000000000000000000000000000000005B
:10258000000000000000000000000000000000004B
:10259000FF01FF01FF01FF0100000000FF01FF013B
:1025A000000000000000000000000000000000002B
:1025B000000000000000000000000000000000001B
:1025C000000000000000000000000000000000000B
:1025D00000000000000000000000000000000000FB
:1025E00000000000000000000000000000000000EB
:1025F00000000000000000000000000000000000DB
:1026000000000000000000000000000000000000CA
:1026100000000000000000000000000000000000BA
:1026200000000000000000000000000000000000AA
:10263000000000000000000000000000000000009A
:10264000000000000000000000000000000000008A
:10265000000000000000000000000000000000007A
:10266000000000000000000000000000FF05000066
:10267000FF05000000000000FF0500000000000052
:10268000FFFFFFFFFFFFFFFF00000000FFFFFFFF56
:1026900000000000FFFFFFFFFFFFFFFF0000010041
:1026A000FFFFFFFF0000000001000000010000002C
:1026B000000000000100000001000000FFFFFFFF1C
:1026C0000000000000000000FFFFFFFF000000000E
:1026D00000000000000000000000000000000000FA
:1026E00000000000000000000000000000000000EA
:1026F00000000000000000000000000000000000DA
:1027000000000000000000000000000000000000C9
:1027100000000000000000000000000000000000B9
:1027200000000000000000000000000000000000A9
:102730000000000000000000000000000000000099
:102740000000000000000000000000000000000089
:102750000000000000000000000000000000000079
:102760000000000000000000000000000000000069
:102770000000000000000000000000000000000059
:102780000000000000000000000000000000000049
:102790000000000000000000000000000000000039
:1027A0000000000000000000000000000000000029
:1027B0000000000000000000000000000000000019
:1027C0000000000000000000000000000000000009
:1027D00000000000000000000000000000000000F9
:1027E00000000000000000000000000000000000E9
:1027F00000000000000000000000000000000000D9
:1028000000000000000000000000000000000000C8
:1028100000000000000000000000000000000000B8
:1028200000000000000000000000000000000000A8
:102830000000000000000000000000000000000098
:10284000000000000000000000000000FF1FFF1F4C
:102850000000000000000000000000000000000078
:10286000FF1F00000000000000000000000000004A
:1028700000000000FF1FFF1FFF1FFF1F250F920B0F
:10288000FF1FFF1F0000000000000000000000000C
:102890000000000000000000000000000000000038
:1028A0000000000000000000000000000000000028
:1028B0000000000000000000000000000000000018
:1028C0000000000000000000000000000000000008
:1028D00000000000000000000000000000000000F8
:1028E00000000000000000000000000000000000E8
:1028F00000000000000000000000000000000000D8
:1029000000000000000000000000000000000000C7
:1029100000000000000000000000000000000000B7
:1029200000000000000000000000000000000000A7
:102930000000000000000000000000000000000097
:102940000000000000000000000000000000000087
:102950000000000000000000000000000000000077
:102960000000000000000000000000000000000067
:102970000000000000000000000000000000000057
:10298000000000000000000000000000FFFFFFFF4B
:10299000FFFFFFFF54B5AAAAFFFFFFFF00000000E2
:1029A000FFFFFFFFFFFFFFFFAA54954AFFFFFFFF56
:1029B00000000000FFFFFFFFFFFFFFFF2929492460
:1029C000FFFFFFFF00000000FFFFFFFFFFFFFFFF13
:1029D00022421010FFFFFFFF00000000FFFFFFFF7B
:1029E000FFFFFFFFFFFFFFFBFFFFFFFF00000000F7
:1029F000FFFFFFFFFFFFFFFF7D77BBB5FFFFFFFF7F
:102A000000000000FFFFFFFFFFFFFFFF56552949B1
:102A1000FFFFFFFF00000000FFFFFFFFFFFFFFFFC2
:102A200022424000FFFFFFFF00000000FFFFFFFF0A
:102A3000FFFFFFFF5680FFFFFFFFFFFF00000000CA
:102A4000FF00FFFFFF00FFFF0000F700FF00FFFF98
:102A500000000000FF030000000000000000000074
:102A6000FF03000000000000FF01FF010000000064
:102A7000000000000000000000000000FFDFFDFF7C
:102A8000FFDFFDFF50014110FFDFFDFF00000000F0
:102A90006FEF7F016FEF7F01000000006FEF7F019C
:102AA0000000000000000000000000000000000026
:102AB0000000000000000000FFF31FFF0000000006
:102AC000000000000000000000000000FFFFFFFF0A
:102AD000FFFFFFFF1D000CC4FFFFFFFF0000000011
:102AE000FF03FF010000000000000000FF03FF01E2
:102AF00000000000FF00FF000000000000000000D8
:102B0000FF00FF00000000000000000000000000C7
:102B1000000000000000000000000000FF030000B3
:102B2000FF03000000020000FF030000000000009F
:102B3000FF0300000000000000000000FF03000091
:102B400000000000FFFFFFFF000000000000000089
:102B5000FFFFFFFF00000000000000000000000079
:102B60000000000000000000000000000000000065
:102B70000000000000000000000000000000000055
:102B80000000000000000000000000000000000045
:102B90000000000000000000000000000000000035
:102BA0000000000000000000000000000000000025
:102BB0000000000000000000000000000000000015
:102BC0000000000000000000000000000000000005
:102BD00000000000000000000000000000000000F5
:102BE00000000000000000000000000000000000E5
:102BF00000000000000000000000000000000000D5
:0C2C0000000000000000000000000000C8
:082C0C0084F1FF7F01000000CC
:042C14006102000851
:042C18003902000875
:0C2C1C0001000000100000000024F40083
:04000005080011B925
:00000001FF
